{
  "contractName": "ColdChain",
  "abi": [
    {
      "anonymous": false,
      "inputs": [
        {
          "indexed": false,
          "internalType": "address",
          "name": "entityId",
          "type": "address"
        },
        {
          "indexed": false,
          "internalType": "string",
          "name": "entityMode",
          "type": "string"
        }
      ],
      "name": "AddEntity",
      "type": "event"
    },
    {
      "anonymous": false,
      "inputs": [
        {
          "indexed": false,
          "internalType": "uint256",
          "name": "VaccineBatchId",
          "type": "uint256"
        },
        {
          "indexed": true,
          "internalType": "address",
          "name": "manufacturer",
          "type": "address"
        }
      ],
      "name": "AddVaccineBatch",
      "type": "event"
    },
    {
      "anonymous": false,
      "inputs": [
        {
          "indexed": true,
          "internalType": "address",
          "name": "issuer",
          "type": "address"
        },
        {
          "indexed": true,
          "internalType": "address",
          "name": "prover",
          "type": "address"
        },
        {
          "indexed": false,
          "internalType": "uint256",
          "name": "certificateId",
          "type": "uint256"
        }
      ],
      "name": "IssueCertificate",
      "type": "event"
    },
    {
      "inputs": [],
      "name": "MAX_CERTIFICATIONS",
      "outputs": [
        {
          "internalType": "uint256",
          "name": "",
          "type": "uint256"
        }
      ],
      "stateMutability": "view",
      "type": "function"
    },
    {
      "inputs": [
        {
          "internalType": "uint256",
          "name": "",
          "type": "uint256"
        }
      ],
      "name": "certificateIds",
      "outputs": [
        {
          "internalType": "uint256",
          "name": "",
          "type": "uint256"
        }
      ],
      "stateMutability": "view",
      "type": "function"
    },
    {
      "inputs": [
        {
          "internalType": "uint256",
          "name": "",
          "type": "uint256"
        }
      ],
      "name": "certificates",
      "outputs": [
        {
          "internalType": "uint256",
          "name": "id",
          "type": "uint256"
        },
        {
          "components": [
            {
              "internalType": "address",
              "name": "id",
              "type": "address"
            },
            {
              "internalType": "enum ColdChain.Mode",
              "name": "mode",
              "type": "uint8"
            },
            {
              "internalType": "uint256[]",
              "name": "certificateIds",
              "type": "uint256[]"
            }
          ],
          "internalType": "struct ColdChain.Entity",
          "name": "issuer",
          "type": "tuple"
        },
        {
          "components": [
            {
              "internalType": "address",
              "name": "id",
              "type": "address"
            },
            {
              "internalType": "enum ColdChain.Mode",
              "name": "mode",
              "type": "uint8"
            },
            {
              "internalType": "uint256[]",
              "name": "certificateIds",
              "type": "uint256[]"
            }
          ],
          "internalType": "struct ColdChain.Entity",
          "name": "prover",
          "type": "tuple"
        },
        {
          "internalType": "bytes",
          "name": "signature",
          "type": "bytes"
        },
        {
          "internalType": "enum ColdChain.Status",
          "name": "status",
          "type": "uint8"
        }
      ],
      "stateMutability": "view",
      "type": "function"
    },
    {
      "inputs": [
        {
          "internalType": "address",
          "name": "",
          "type": "address"
        }
      ],
      "name": "entities",
      "outputs": [
        {
          "internalType": "address",
          "name": "id",
          "type": "address"
        },
        {
          "internalType": "enum ColdChain.Mode",
          "name": "mode",
          "type": "uint8"
        }
      ],
      "stateMutability": "view",
      "type": "function"
    },
    {
      "inputs": [
        {
          "internalType": "uint256",
          "name": "",
          "type": "uint256"
        }
      ],
      "name": "vaccineBatches",
      "outputs": [
        {
          "internalType": "uint256",
          "name": "id",
          "type": "uint256"
        },
        {
          "internalType": "string",
          "name": "brand",
          "type": "string"
        },
        {
          "internalType": "address",
          "name": "manufacturer",
          "type": "address"
        }
      ],
      "stateMutability": "view",
      "type": "function"
    },
    {
      "inputs": [
        {
          "internalType": "address",
          "name": "_id",
          "type": "address"
        },
        {
          "internalType": "string",
          "name": "_mode",
          "type": "string"
        }
      ],
      "name": "addEntity",
      "outputs": [],
      "stateMutability": "nonpayable",
      "type": "function"
    },
    {
      "inputs": [
        {
          "internalType": "string",
          "name": "brand",
          "type": "string"
        },
        {
          "internalType": "address",
          "name": "manufacturer",
          "type": "address"
        }
      ],
      "name": "addVaccineBatch",
      "outputs": [
        {
          "internalType": "uint256",
          "name": "",
          "type": "uint256"
        }
      ],
      "stateMutability": "nonpayable",
      "type": "function"
    },
    {
      "inputs": [
        {
          "internalType": "address",
          "name": "_issuer",
          "type": "address"
        },
        {
          "internalType": "address",
          "name": "_prover",
          "type": "address"
        },
        {
          "internalType": "string",
          "name": "_status",
          "type": "string"
        },
        {
          "internalType": "uint256",
          "name": "vaccineBatchId",
          "type": "uint256"
        },
        {
          "internalType": "bytes",
          "name": "signature",
          "type": "bytes"
        }
      ],
      "name": "issueCertificate",
      "outputs": [
        {
          "internalType": "uint256",
          "name": "",
          "type": "uint256"
        }
      ],
      "stateMutability": "nonpayable",
      "type": "function"
    },
    {
      "inputs": [
        {
          "internalType": "address",
          "name": "_address",
          "type": "address"
        }
      ],
      "name": "getModeOf",
      "outputs": [
        {
          "internalType": "enum ColdChain.Mode",
          "name": "mode",
          "type": "uint8"
        }
      ],
      "stateMutability": "view",
      "type": "function"
    },
    {
      "inputs": [
        {
          "internalType": "bytes32",
          "name": "message",
          "type": "bytes32"
        },
        {
          "internalType": "uint256",
          "name": "id",
          "type": "uint256"
        },
        {
          "internalType": "address",
          "name": "issuer",
          "type": "address"
        }
      ],
      "name": "isMatchingSignature",
      "outputs": [
        {
          "internalType": "bool",
          "name": "",
          "type": "bool"
        }
      ],
      "stateMutability": "view",
      "type": "function"
    }
  ],
  "bytecode": "0x608060405234801561001057600080fd5b50612a5d806100206000396000f3fe608060405234801561001057600080fd5b506004361061009e5760003560e01c8063663b3e2211610066578063663b3e22146101845780639ddf7734146101b8578063b5bad46d146101e8578063c8d8184b14610204578063fc79b0a9146102345761009e565b806303a692b9146100a35780630f9c774d146100d55780631d8ee48a1461010557806345194c07146101365780634851a01d14610166575b600080fd5b6100bd60048036038101906100b89190611a5a565b610264565b6040516100cc93929190611b70565b60405180910390f35b6100ef60048036038101906100ea9190611a5a565b610336565b6040516100fc9190611bae565b60405180910390f35b61011f600480360381019061011a9190611bf5565b61035a565b60405161012d929190611c99565b60405180910390f35b610150600480360381019061014b9190611cf8565b6103ab565b60405161015d9190611d66565b60405180910390f35b61016e610733565b60405161017b9190611bae565b60405180910390f35b61019e60048036038101906101999190611a5a565b610738565b6040516101af959493929190611f4a565b60405180910390f35b6101d260048036038101906101cd9190611bf5565b6109e9565b6040516101df9190611fb2565b60405180910390f35b61020260048036038101906101fd9190612102565b610b2e565b005b61021e600480360381019061021991906121ff565b610ceb565b60405161022b9190611bae565b60405180910390f35b61024e600480360381019061024991906122b2565b611305565b60405161025b9190611bae565b60405180910390f35b600260205280600052604060002060009150905080600001549080600101805461028d9061233d565b80601f01602080910402602001604051908101604052809291908181526020018280546102b99061233d565b80156103065780601f106102db57610100808354040283529160200191610306565b820191906000526020600020905b8154815290600101906020018083116102e957829003601f168201915b5050505050908060020160009054906101000a900473ffffffffffffffffffffffffffffffffffffffff16905083565b6000818154811061034657600080fd5b906000526020600020016000915090505481565b60046020528060005260406000206000915090508060000160009054906101000a900473ffffffffffffffffffffffffffffffffffffffff16908060000160149054906101000a900460ff16905082565b600080600360008581526020019081526020016000206040518060a001604052908160008201548152602001600182016040518060600160405290816000820160009054906101000a900473ffffffffffffffffffffffffffffffffffffffff1673ffffffffffffffffffffffffffffffffffffffff1673ffffffffffffffffffffffffffffffffffffffff1681526020016000820160149054906101000a900460ff16600281111561046157610460611c22565b5b600281111561047357610472611c22565b5b8152602001600182018054806020026020016040519081016040528092919081815260200182805480156104c657602002820191906000526020600020905b8154815260200190600101908083116104b2575b5050505050815250508152602001600382016040518060600160405290816000820160009054906101000a900473ffffffffffffffffffffffffffffffffffffffff1673ffffffffffffffffffffffffffffffffffffffff1673ffffffffffffffffffffffffffffffffffffffff1681526020016000820160149054906101000a900460ff16600281111561055e5761055d611c22565b5b60028111156105705761056f611c22565b5b8152602001600182018054806020026020016040519081016040528092919081815260200182805480156105c357602002820191906000526020600020905b8154815260200190600101908083116105af575b50505050508152505081526020016005820180546105e09061233d565b80601f016020809104026020016040519081016040528092919081815260200182805461060c9061233d565b80156106595780601f1061062e57610100808354040283529160200191610659565b820191906000526020600020905b81548152906001019060200180831161063c57829003601f168201915b505050505081526020016006820160009054906101000a900460ff16600481111561068757610686611c22565b5b600481111561069957610698611c22565b5b8152505090508273ffffffffffffffffffffffffffffffffffffffff1681602001516000015173ffffffffffffffffffffffffffffffffffffffff16146106df57600080fd5b60006106ef8683606001516114c6565b905081602001516000015173ffffffffffffffffffffffffffffffffffffffff168173ffffffffffffffffffffffffffffffffffffffff1614925050509392505050565b600281565b6003602052806000526040600020600091509050806000015490806001016040518060600160405290816000820160009054906101000a900473ffffffffffffffffffffffffffffffffffffffff1673ffffffffffffffffffffffffffffffffffffffff1673ffffffffffffffffffffffffffffffffffffffff1681526020016000820160149054906101000a900460ff1660028111156107dc576107db611c22565b5b60028111156107ee576107ed611c22565b5b81526020016001820180548060200260200160405190810160405280929190818152602001828054801561084157602002820191906000526020600020905b81548152602001906001019080831161082d575b50505050508152505090806003016040518060600160405290816000820160009054906101000a900473ffffffffffffffffffffffffffffffffffffffff1673ffffffffffffffffffffffffffffffffffffffff1673ffffffffffffffffffffffffffffffffffffffff1681526020016000820160149054906101000a900460ff1660028111156108d5576108d4611c22565b5b60028111156108e7576108e6611c22565b5b81526020016001820180548060200260200160405190810160405280929190818152602001828054801561093a57602002820191906000526020600020905b815481526020019060010190808311610926575b505050505081525050908060050180546109539061233d565b80601f016020809104026020016040519081016040528092919081815260200182805461097f9061233d565b80156109cc5780601f106109a1576101008083540402835291602001916109cc565b820191906000526020600020905b8154815290600101906020018083116109af57829003601f168201915b5050505050908060060160009054906101000a900460ff16905085565b600080600460008473ffffffffffffffffffffffffffffffffffffffff1673ffffffffffffffffffffffffffffffffffffffff1681526020019081526020016000206040518060600160405290816000820160009054906101000a900473ffffffffffffffffffffffffffffffffffffffff1673ffffffffffffffffffffffffffffffffffffffff1673ffffffffffffffffffffffffffffffffffffffff1681526020016000820160149054906101000a900460ff166002811115610ab157610ab0611c22565b5b6002811115610ac357610ac2611c22565b5b815260200160018201805480602002602001604051908101604052809291908181526020018280548015610b1657602002820191906000526020600020905b815481526020019060010190808311610b02575b50505050508152505090508060200151915050919050565b6000610b398261159e565b90506000600267ffffffffffffffff811115610b5857610b57611fd7565b5b604051908082528060200260200182016040528015610b865781602001602082028036833780820191505090505b509050600060405180606001604052808673ffffffffffffffffffffffffffffffffffffffff168152602001846002811115610bc557610bc4611c22565b5b815260200183815250905080600460008773ffffffffffffffffffffffffffffffffffffffff1673ffffffffffffffffffffffffffffffffffffffff16815260200190815260200160002060008201518160000160006101000a81548173ffffffffffffffffffffffffffffffffffffffff021916908373ffffffffffffffffffffffffffffffffffffffff16021790555060208201518160000160146101000a81548160ff02191690836002811115610c8257610c81611c22565b5b02179055506040820151816001019080519060200190610ca392919061189a565b509050507ff5a37da00f0e4029ee2682b1919ee55d7e6f9d7492237aad9bd1aea7d53d4874816000015185604051610cdc92919061236e565b60405180910390a15050505050565b600080600460008873ffffffffffffffffffffffffffffffffffffffff1673ffffffffffffffffffffffffffffffffffffffff1681526020019081526020016000206040518060600160405290816000820160009054906101000a900473ffffffffffffffffffffffffffffffffffffffff1673ffffffffffffffffffffffffffffffffffffffff1673ffffffffffffffffffffffffffffffffffffffff1681526020016000820160149054906101000a900460ff166002811115610db357610db2611c22565b5b6002811115610dc557610dc4611c22565b5b815260200160018201805480602002602001604051908101604052809291908181526020018280548015610e1857602002820191906000526020600020905b815481526020019060010190808311610e04575b505050505081525050905060006002811115610e3757610e36611c22565b5b81602001516002811115610e4e57610e4d611c22565b5b14610e8e576040517f08c379a0000000000000000000000000000000000000000000000000000000008152600401610e85906123ea565b60405180910390fd5b6000600460008873ffffffffffffffffffffffffffffffffffffffff1673ffffffffffffffffffffffffffffffffffffffff1681526020019081526020016000206040518060600160405290816000820160009054906101000a900473ffffffffffffffffffffffffffffffffffffffff1673ffffffffffffffffffffffffffffffffffffffff1673ffffffffffffffffffffffffffffffffffffffff1681526020016000820160149054906101000a900460ff166002811115610f5557610f54611c22565b5b6002811115610f6757610f66611c22565b5b815260200160018201805480602002602001604051908101604052809291908181526020018280548015610fba57602002820191906000526020600020905b815481526020019060010190808311610fa6575b505050505081525050905060016002811115610fd957610fd8611c22565b5b81602001516002811115610ff057610fef611c22565b5b14611030576040517f08c379a000000000000000000000000000000000000000000000000000000000815260040161102790612456565b60405180910390fd5b600061103b876116c1565b905060008080549050905060006040518060a0016040528083815260200186815260200185815260200188815260200184600481111561107e5761107d611c22565b5b8152509050600080805490509080600181540180825580915050600190039060005260206000200160009091909190915055806003600060016000805490506110c791906124a5565b81526020019081526020016000206000820151816000015560208201518160010160008201518160000160006101000a81548173ffffffffffffffffffffffffffffffffffffffff021916908373ffffffffffffffffffffffffffffffffffffffff16021790555060208201518160000160146101000a81548160ff0219169083600281111561115a57611159611c22565b5b0217905550604082015181600101908051906020019061117b92919061189a565b50505060408201518160030160008201518160000160006101000a81548173ffffffffffffffffffffffffffffffffffffffff021916908373ffffffffffffffffffffffffffffffffffffffff16021790555060208201518160000160146101000a81548160ff021916908360028111156111f9576111f8611c22565b5b0217905550604082015181600101908051906020019061121a92919061189a565b50505060608201518160050190805190602001906112399291906118e7565b5060808201518160060160006101000a81548160ff0219169083600481111561126557611264611c22565b5b02179055509050508973ffffffffffffffffffffffffffffffffffffffff168b73ffffffffffffffffffffffffffffffffffffffff167fc9e3e855764ebb21ed83dcdf8ed5e1398c752d6446308e092c28a84a77a199bd60016000805490506112ce91906124a5565b6040516112db9190611bae565b60405180910390a360016000805490506112f591906124a5565b9550505050505095945050505050565b600080600267ffffffffffffffff81111561132357611322611fd7565b5b6040519080825280602002602001820160405280156113515781602001602082028036833780820191505090505b50905060006001805490509050600060405180608001604052808381526020018781526020018673ffffffffffffffffffffffffffffffffffffffff16815260200184815250905080600260008481526020019081526020016000206000820151816000015560208201518160010190805190602001906113d392919061196d565b5060408201518160020160006101000a81548173ffffffffffffffffffffffffffffffffffffffff021916908373ffffffffffffffffffffffffffffffffffffffff160217905550606082015181600301908051906020019061143792919061189a565b509050506001829080600181540180825580915050600190039060005260206000200160009091909190915055806040015173ffffffffffffffffffffffffffffffffffffffff167fe85391abb5e51659c581dd95107048251657ee66755655cc08c9c0ec3a0a913982600001516040516114b29190611bae565b60405180910390a281935050505092915050565b6000806000806114d585611868565b92509250925060006040518060400160405280601c81526020017f19457468657269756d205369676e6564204d6573736167653a0a33320000000081525090506000818860405160200161152a929190612536565b604051602081830303815290604052805190602001209050600181868686604051600081526020016040526040516115659493929190612589565b6020604051602081039080840390855afa158015611587573d6000803e3d6000fd5b505050602060405103519550505050505092915050565b600080826040516020016115b2919061260a565b60405160208183030381529060405280519060200120905060006040516020016115db9061266d565b6040516020818303038152906040528051906020012090506000604051602001611604906126ce565b604051602081830303815290604052805190602001209050600060405160200161162d9061272f565b6040516020818303038152906040528051906020012090508284036116595760009450505050506116bc565b81840361166d5760019450505050506116bc565b8084036116815760029450505050506116bc565b6040517f08c379a00000000000000000000000000000000000000000000000000000000081526004016116b390612790565b60405180910390fd5b919050565b600080826040516020016116d5919061260a565b60405160208183030381529060405280519060200120905060006040516020016116fe906127fc565b60405160208183030381529060405280519060200120905060006040516020016117279061285d565b6040516020818303038152906040528051906020012090506000604051602001611750906128be565b60405160208183030381529060405280519060200120905060006040516020016117799061291f565b60405160208183030381529060405280519060200120905060006040516020016117a290612980565b6040516020818303038152906040528051906020012090508486036117d05760009650505050505050611863565b8386036117e65760019650505050505050611863565b8286036117fc5760029650505050505050611863565b8186036118125760039650505050505050611863565b8086036118285760049650505050505050611863565b6040517f08c379a000000000000000000000000000000000000000000000000000000000815260040161185a90612a07565b60405180910390fd5b919050565b6000806000604184511461187b57600080fd5b6020840151915060408401519050606084015160001a92509193909250565b8280548282559060005260206000209081019282156118d6579160200282015b828111156118d55782518255916020019190600101906118ba565b5b5090506118e391906119f3565b5090565b8280546118f39061233d565b90600052602060002090601f016020900481019282611915576000855561195c565b82601f1061192e57805160ff191683800117855561195c565b8280016001018555821561195c579182015b8281111561195b578251825591602001919060010190611940565b5b50905061196991906119f3565b5090565b8280546119799061233d565b90600052602060002090601f01602090048101928261199b57600085556119e2565b82601f106119b457805160ff19168380011785556119e2565b828001600101855582156119e2579182015b828111156119e15782518255916020019190600101906119c6565b5b5090506119ef91906119f3565b5090565b5b80821115611a0c5760008160009055506001016119f4565b5090565b6000604051905090565b600080fd5b600080fd5b6000819050919050565b611a3781611a24565b8114611a4257600080fd5b50565b600081359050611a5481611a2e565b92915050565b600060208284031215611a7057611a6f611a1a565b5b6000611a7e84828501611a45565b91505092915050565b611a9081611a24565b82525050565b600081519050919050565b600082825260208201905092915050565b60005b83811015611ad0578082015181840152602081019050611ab5565b83811115611adf576000848401525b50505050565b6000601f19601f8301169050919050565b6000611b0182611a96565b611b0b8185611aa1565b9350611b1b818560208601611ab2565b611b2481611ae5565b840191505092915050565b600073ffffffffffffffffffffffffffffffffffffffff82169050919050565b6000611b5a82611b2f565b9050919050565b611b6a81611b4f565b82525050565b6000606082019050611b856000830186611a87565b8181036020830152611b978185611af6565b9050611ba66040830184611b61565b949350505050565b6000602082019050611bc36000830184611a87565b92915050565b611bd281611b4f565b8114611bdd57600080fd5b50565b600081359050611bef81611bc9565b92915050565b600060208284031215611c0b57611c0a611a1a565b5b6000611c1984828501611be0565b91505092915050565b7f4e487b7100000000000000000000000000000000000000000000000000000000600052602160045260246000fd5b60038110611c6257611c61611c22565b5b50565b6000819050611c7382611c51565b919050565b6000611c8382611c65565b9050919050565b611c9381611c78565b82525050565b6000604082019050611cae6000830185611b61565b611cbb6020830184611c8a565b9392505050565b6000819050919050565b611cd581611cc2565b8114611ce057600080fd5b50565b600081359050611cf281611ccc565b92915050565b600080600060608486031215611d1157611d10611a1a565b5b6000611d1f86828701611ce3565b9350506020611d3086828701611a45565b9250506040611d4186828701611be0565b9150509250925092565b60008115159050919050565b611d6081611d4b565b82525050565b6000602082019050611d7b6000830184611d57565b92915050565b611d8a81611b4f565b82525050565b611d9981611c78565b82525050565b600081519050919050565b600082825260208201905092915050565b6000819050602082019050919050565b611dd481611a24565b82525050565b6000611de68383611dcb565b60208301905092915050565b6000602082019050919050565b6000611e0a82611d9f565b611e148185611daa565b9350611e1f83611dbb565b8060005b83811015611e50578151611e378882611dda565b9750611e4283611df2565b925050600181019050611e23565b5085935050505092915050565b6000606083016000830151611e756000860182611d81565b506020830151611e886020860182611d90565b5060408301518482036040860152611ea08282611dff565b9150508091505092915050565b600081519050919050565b600082825260208201905092915050565b6000611ed482611ead565b611ede8185611eb8565b9350611eee818560208601611ab2565b611ef781611ae5565b840191505092915050565b60058110611f1357611f12611c22565b5b50565b6000819050611f2482611f02565b919050565b6000611f3482611f16565b9050919050565b611f4481611f29565b82525050565b600060a082019050611f5f6000830188611a87565b8181036020830152611f718187611e5d565b90508181036040830152611f858186611e5d565b90508181036060830152611f998185611ec9565b9050611fa86080830184611f3b565b9695505050505050565b6000602082019050611fc76000830184611c8a565b92915050565b600080fd5b600080fd5b7f4e487b7100000000000000000000000000000000000000000000000000000000600052604160045260246000fd5b61200f82611ae5565b810181811067ffffffffffffffff8211171561202e5761202d611fd7565b5b80604052505050565b6000612041611a10565b905061204d8282612006565b919050565b600067ffffffffffffffff82111561206d5761206c611fd7565b5b61207682611ae5565b9050602081019050919050565b82818337600083830152505050565b60006120a56120a084612052565b612037565b9050828152602081018484840111156120c1576120c0611fd2565b5b6120cc848285612083565b509392505050565b600082601f8301126120e9576120e8611fcd565b5b81356120f9848260208601612092565b91505092915050565b6000806040838503121561211957612118611a1a565b5b600061212785828601611be0565b925050602083013567ffffffffffffffff81111561214857612147611a1f565b5b612154858286016120d4565b9150509250929050565b600067ffffffffffffffff82111561217957612178611fd7565b5b61218282611ae5565b9050602081019050919050565b60006121a261219d8461215e565b612037565b9050828152602081018484840111156121be576121bd611fd2565b5b6121c9848285612083565b509392505050565b600082601f8301126121e6576121e5611fcd565b5b81356121f684826020860161218f565b91505092915050565b600080600080600060a0868803121561221b5761221a611a1a565b5b600061222988828901611be0565b955050602061223a88828901611be0565b945050604086013567ffffffffffffffff81111561225b5761225a611a1f565b5b612267888289016120d4565b935050606061227888828901611a45565b925050608086013567ffffffffffffffff81111561229957612298611a1f565b5b6122a5888289016121d1565b9150509295509295909350565b600080604083850312156122c9576122c8611a1a565b5b600083013567ffffffffffffffff8111156122e7576122e6611a1f565b5b6122f3858286016120d4565b925050602061230485828601611be0565b9150509250929050565b7f4e487b7100000000000000000000000000000000000000000000000000000000600052602260045260246000fd5b6000600282049050600182168061235557607f821691505b6020821081036123685761236761230e565b5b50919050565b60006040820190506123836000830185611b61565b81810360208301526123958184611af6565b90509392505050565b7f497373756572206973206e6f7420746865726500000000000000000000000000600082015250565b60006123d4601383611aa1565b91506123df8261239e565b602082019050919050565b60006020820190508181036000830152612403816123c7565b9050919050565b7f50726f766572206973206e6f7420746865726500000000000000000000000000600082015250565b6000612440601383611aa1565b915061244b8261240a565b602082019050919050565b6000602082019050818103600083015261246f81612433565b9050919050565b7f4e487b7100000000000000000000000000000000000000000000000000000000600052601160045260246000fd5b60006124b082611a24565b91506124bb83611a24565b9250828210156124ce576124cd612476565b5b828203905092915050565b600081905092915050565b60006124ef82611ead565b6124f981856124d9565b9350612509818560208601611ab2565b80840191505092915050565b6000819050919050565b61253061252b82611cc2565b612515565b82525050565b600061254282856124e4565b915061254e828461251f565b6020820191508190509392505050565b61256781611cc2565b82525050565b600060ff82169050919050565b6125838161256d565b82525050565b600060808201905061259e600083018761255e565b6125ab602083018661257a565b6125b8604083018561255e565b6125c5606083018461255e565b95945050505050565b600081905092915050565b60006125e482611a96565b6125ee81856125ce565b93506125fe818560208601611ab2565b80840191505092915050565b600061261682846125d9565b915081905092915050565b7f4953535545520000000000000000000000000000000000000000000000000000600082015250565b60006126576006836125ce565b915061266282612621565b600682019050919050565b60006126788261264a565b9150819050919050565b7f50524f5645520000000000000000000000000000000000000000000000000000600082015250565b60006126b86006836125ce565b91506126c382612682565b600682019050919050565b60006126d9826126ab565b9150819050919050565b7f5645524946494552000000000000000000000000000000000000000000000000600082015250565b60006127196008836125ce565b9150612724826126e3565b600882019050919050565b600061273a8261270c565b9150819050919050565b7f726563656976656420696e76616c696420656e74697479206d6f646500000000600082015250565b600061277a601c83611aa1565b915061278582612744565b602082019050919050565b600060208201905081810360008301526127a98161276d565b9050919050565b7f4d414e5546414354555245440000000000000000000000000000000000000000600082015250565b60006127e6600c836125ce565b91506127f1826127b0565b600c82019050919050565b6000612807826127d9565b9150819050919050565b7f44454c49564552494e475f494e5445524e4154494f4e414c0000000000000000600082015250565b60006128476018836125ce565b915061285282612811565b601882019050919050565b60006128688261283a565b9150819050919050565b7f53544f5245440000000000000000000000000000000000000000000000000000600082015250565b60006128a86006836125ce565b91506128b382612872565b600682019050919050565b60006128c98261289b565b9150819050919050565b7f44454c49564552494e475f4c4f43414c00000000000000000000000000000000600082015250565b60006129096010836125ce565b9150612914826128d3565b601082019050919050565b600061292a826128fc565b9150819050919050565b7f44454c4956455245440000000000000000000000000000000000000000000000600082015250565b600061296a6009836125ce565b915061297582612934565b600982019050919050565b600061298b8261295d565b9150819050919050565b7f726563656976656420696e76616c69642063657274696669636174652073746160008201527f7475730000000000000000000000000000000000000000000000000000000000602082015250565b60006129f1602383611aa1565b91506129fc82612995565b604082019050919050565b60006020820190508181036000830152612a20816129e4565b905091905056fea2646970667358221220b3253b30deb807555339c120babbc97c67b6a07d99c9ecfacfc4d027e86faba164736f6c634300080d0033",
  "immutableReferences": {},
  "source": "// SPDX-License-Identifier: GPL-3.0\r\npragma solidity >= 0.4.16 < 0.9.0;\r\n\r\nlibrary CryptoSuite{\r\n    function splitSignature(bytes memory sig) internal pure returns(uint8 v,bytes32 r,bytes32 s) {\r\n       require(sig.length==65);\r\n       assembly {\r\n           //first 32 bytes\r\n           r := mload(add(sig,32))\r\n           //next 32 bytes\r\n           s := mload(add(sig,64))\r\n            //last 32 bytes\r\n            v:=byte(0,mload(add(sig,96)))\r\n       }\r\n       return (v,r,s);\r\n    }\r\n\r\n    function recoverSigner(bytes32 message,bytes memory sig) internal pure returns (address){\r\n        (uint8 v, bytes32 r,bytes32 s)=splitSignature(sig);\r\n        bytes memory prefix=\"\\x19Etherium Signed Message:\\n32\";\r\n        bytes32 prefixHashed=keccak256(abi.encodePacked(prefix,message));\r\n        return ecrecover(prefixHashed,v,r,s);\r\n    }\r\n\r\n}\r\n\r\ncontract ColdChain{\r\n \r\n    enum Mode {ISSUER, PROVER, VERIFIER}\r\n    struct Entity{\r\n        address id;\r\n        Mode mode;\r\n        uint[] certificateIds;\r\n    }\r\n \r\n    enum Status { MANUFACTURED, DELIVERING_INTERNATIONAL,STORED, DELIVERING_LOCAL, DELIVERED}\r\n    struct Certificate {\r\n        uint id;\r\n        Entity issuer;\r\n        Entity prover;\r\n        bytes signature;\r\n        Status status;\r\n    }\r\n\r\n    struct VaccineBatch {\r\n        uint id;\r\n        string brand;\r\n        address manufacturer;\r\n        uint[] certificateIds;\r\n    }\r\n\r\n    //certificate is not verified more than it needs to\r\n    uint public constant MAX_CERTIFICATIONS=2;\r\n\r\n    uint[] public certificateIds;\r\n    uint[] vaccineBatchIds;\r\n    mapping( uint => VaccineBatch) public vaccineBatches;\r\n    mapping(uint => Certificate) public certificates;\r\n    mapping(address => Entity) public entities;\r\n    \r\n    event AddEntity( address entityId, string entityMode);\r\n    event AddVaccineBatch( uint VaccineBatchId, address indexed manufacturer);\r\n    event IssueCertificate( address indexed issuer, address indexed prover, uint certificateId);\r\n\r\n    function addEntity(address _id, string memory _mode) public {\r\n        Mode mode=unmarshalMode(_mode);\r\n        uint[] memory _certificateIds=new uint[](MAX_CERTIFICATIONS);\r\n        Entity memory entity= Entity(_id, mode, _certificateIds);\r\n        entities[_id]=entity;\r\n        emit AddEntity(entity.id,_mode);\r\n    }\r\n\r\n    function unmarshalMode(string memory _mode) private pure returns(Mode mode){\r\n        bytes32 encodedMode=keccak256(abi.encodePacked(_mode));\r\n        bytes32 encodedMode0= keccak256(abi.encodePacked(\"ISSUER\"));\r\n        bytes32 encodedMode1= keccak256(abi.encodePacked(\"PROVER\"));\r\n        bytes32 encodedMode2= keccak256(abi.encodePacked(\"VERIFIER\"));\r\n\r\n        if(encodedMode==encodedMode0) return Mode.ISSUER;\r\n        else if(encodedMode== encodedMode1) return Mode.PROVER;\r\n        else if(encodedMode==encodedMode2) return Mode.VERIFIER;\r\n        revert(\"received invalid entity mode\");\r\n    }\r\n\r\n    // returns vaccine batch ID.\r\n    function addVaccineBatch(string memory brand,address manufacturer) public returns (uint){\r\n        uint[] memory _certificateIds=new uint[](MAX_CERTIFICATIONS);\r\n        uint id=vaccineBatchIds.length;\r\n        VaccineBatch memory batch= VaccineBatch(id, brand,manufacturer, _certificateIds);\r\n        vaccineBatches[id]=batch;\r\n        vaccineBatchIds.push(id);\r\n        emit AddVaccineBatch(batch.id, batch.manufacturer);\r\n        return id;\r\n    }\r\n\r\n//returns certificate ID\r\n    function issueCertificate(address _issuer, address _prover,  string memory _status,uint vaccineBatchId,bytes memory signature) public returns (uint){\r\n        Entity memory issuer=entities[_issuer];\r\n        require(issuer.mode==Mode.ISSUER,\"Issuer is not there\");\r\n\r\n        Entity memory prover =entities[_prover];\r\n        require(prover.mode==Mode.PROVER,\"Prover is not there\");\r\n    \r\n        Status status=unmarshalStatus(_status);\r\n        uint id=certificateIds.length;\r\n        Certificate memory certificate=Certificate(id,issuer,prover,signature,status);\r\n        certificateIds.push(certificateIds.length);\r\n        certificates[certificateIds.length-1]=certificate;\r\n        emit IssueCertificate(_issuer,_prover,certificateIds.length-1);\r\n        return certificateIds.length-1;        \r\n    }\r\n\r\n    function getModeOf(address _address) public view returns(Mode mode){\r\n         Entity memory prover =entities[_address];\r\n         return prover.mode;\r\n    }\r\n\r\n    function unmarshalStatus(string memory _status) private pure returns(Status status){\r\n        bytes32 encodedStatus=keccak256(abi.encodePacked(_status));\r\n        bytes32 encodedStatus0= keccak256(abi.encodePacked(\"MANUFACTURED\"));\r\n        bytes32 encodedStatus1= keccak256(abi.encodePacked(\"DELIVERING_INTERNATIONAL\"));\r\n        bytes32 encodedStatus2= keccak256(abi.encodePacked(\"STORED\"));\r\n        bytes32 encodedStatus3= keccak256(abi.encodePacked(\"DELIVERING_LOCAL\"));\r\n        bytes32 encodedStatus4= keccak256(abi.encodePacked(\"DELIVERED\"));\r\n\r\n        if(encodedStatus==encodedStatus0) return Status.MANUFACTURED;\r\n        else if(encodedStatus== encodedStatus1) return Status.DELIVERING_INTERNATIONAL;\r\n        else if(encodedStatus==encodedStatus2) return Status.STORED;\r\n        else if(encodedStatus== encodedStatus3) return Status.DELIVERING_LOCAL;\r\n        else if(encodedStatus==encodedStatus4) return Status.DELIVERED;\r\n        revert(\"received invalid certificate status\");\r\n    }\r\n\r\n    function isMatchingSignature(bytes32 message, uint id, address issuer) public view returns(bool){\r\n        Certificate memory cert=certificates[id];\r\n        require(cert.issuer.id== issuer);\r\n        address recoverSigner =CryptoSuite.recoverSigner(message,cert.signature);\r\n        return recoverSigner==cert.issuer.id;\r\n    }\r\n\r\n}",
  "sourcePath": "C:\\SPIT\\SPIT_SEM6\\mini project\\supplyChain\\coldChain\\contracts\\ColdChain.sol",
  "compiler": {
    "name": "solc",
    "version": "0.8.13+commit.abaa5c0e.Emscripten.clang"
  },
  "schemaVersion": "3.4.13",
  "updatedAt": "2023-03-26T09:35:22.721Z",
  "devdoc": {
    "kind": "dev",
    "methods": {},
    "version": 1
  },
  "userdoc": {
    "kind": "user",
    "methods": {},
    "version": 1
  }
}